:1000000009C00EC00DC00CC00BC00AC009C008C09A
:1000100007C006C011241FBECFE9CDBF02D030C03B
:10002000EFCFBB9ABC9AC398C4982FE986E891E0B9
:10003000215080409040E1F700C00000C39AC4986E
:100040002FE986E891E0215080409040E1F700C020
:100050000000C398C49A2FE986E891E021508040BF
:100060009040E1F700C00000C39AC49A2FE986E8E7
:1000700091E0215080409040E1F700C00000D3CFD4
:04008000F894FFCF22
:00000001FF
